{
    "_format": "hh-sol-artifact-1",
    "contractName": "Crowdfund",
    "sourceName": "contracts/Crowdfund.sol",
    "abi": [
        {
            "inputs": [],
            "name": "AlreadyReclaimed",
            "type": "error"
        },
        {
            "inputs": [],
            "name": "CampaignHasEnded",
            "type": "error"
        },
        {
            "inputs": [],
            "name": "CampaignNotActive",
            "type": "error"
        },
        {
            "inputs": [],
            "name": "CampaignNotActiveOrClosing",
            "type": "error"
        },
        {
            "inputs": [],
            "name": "CampaignNotClosing",
            "type": "error"
        },
        {
            "inputs": [],
            "name": "CampaignNotCompleted",
            "type": "error"
        },
        {
            "inputs": [],
            "name": "CannotCloseCompletedCampaign",
            "type": "error"
        },
        {
            "inputs": [],
            "name": "DataCIDCannotBeEmpty",
            "type": "error"
        },
        {
            "inputs": [],
            "name": "DonationAmountMustBePositive",
            "type": "error"
        },
        {
            "inputs": [],
            "name": "EndTimeNotInFuture",
            "type": "error"
        },
        {
            "inputs": [],
            "name": "FundTransferFailed",
            "type": "error"
        },
        {
            "inputs": [],
            "name": "InvalidCampaignId",
            "type": "error"
        },
        {
            "inputs": [],
            "name": "NoDonationToClaim",
            "type": "error"
        },
        {
            "inputs": [],
            "name": "NotCampaignCreator",
            "type": "error"
        },
        {
            "inputs": [],
            "name": "ReclaimPeriodActive",
            "type": "error"
        },
        {
            "inputs": [],
            "name": "ReclaimPeriodOver",
            "type": "error"
        },
        {
            "inputs": [],
            "name": "ReentrancyGuardReentrantCall",
            "type": "error"
        },
        {
            "inputs": [],
            "name": "TargetAmountMustBePositive",
            "type": "error"
        },
        {
            "anonymous": false,
            "inputs": [
                {
                    "indexed": true,
                    "internalType": "uint256",
                    "name": "campaignId",
                    "type": "uint256"
                },
                {
                    "indexed": true,
                    "internalType": "address",
                    "name": "creator",
                    "type": "address"
                },
                {
                    "indexed": false,
                    "internalType": "uint256",
                    "name": "amountWithdrawn",
                    "type": "uint256"
                }
            ],
            "name": "CampaignClosedByCreator",
            "type": "event"
        },
        {
            "anonymous": false,
            "inputs": [
                {
                    "indexed": true,
                    "internalType": "uint256",
                    "name": "campaignId",
                    "type": "uint256"
                },
                {
                    "indexed": true,
                    "internalType": "address",
                    "name": "initiator",
                    "type": "address"
                },
                {
                    "indexed": false,
                    "internalType": "uint256",
                    "name": "reclaimDeadline",
                    "type": "uint256"
                }
            ],
            "name": "CampaignClosingInitiated",
            "type": "event"
        },
        {
            "anonymous": false,
            "inputs": [
                {
                    "indexed": true,
                    "internalType": "uint256",
                    "name": "campaignId",
                    "type": "uint256"
                },
                {
                    "indexed": true,
                    "internalType": "address",
                    "name": "creator",
                    "type": "address"
                },
                {
                    "indexed": false,
                    "internalType": "uint256",
                    "name": "targetAmount",
                    "type": "uint256"
                },
                {
                    "indexed": false,
                    "internalType": "string",
                    "name": "dataCID",
                    "type": "string"
                },
                {
                    "indexed": false,
                    "internalType": "uint256",
                    "name": "endTime",
                    "type": "uint256"
                },
                {
                    "indexed": false,
                    "internalType": "uint256",
                    "name": "creationTimestamp",
                    "type": "uint256"
                }
            ],
            "name": "CampaignCreated",
            "type": "event"
        },
        {
            "anonymous": false,
            "inputs": [
                {
                    "indexed": true,
                    "internalType": "uint256",
                    "name": "campaignId",
                    "type": "uint256"
                },
                {
                    "indexed": true,
                    "internalType": "address",
                    "name": "donor",
                    "type": "address"
                },
                {
                    "indexed": false,
                    "internalType": "uint256",
                    "name": "amount",
                    "type": "uint256"
                },
                {
                    "indexed": false,
                    "internalType": "uint256",
                    "name": "timestamp",
                    "type": "uint256"
                }
            ],
            "name": "DonationReceived",
            "type": "event"
        },
        {
            "anonymous": false,
            "inputs": [
                {
                    "indexed": true,
                    "internalType": "uint256",
                    "name": "campaignId",
                    "type": "uint256"
                },
                {
                    "indexed": true,
                    "internalType": "address",
                    "name": "creator",
                    "type": "address"
                },
                {
                    "indexed": false,
                    "internalType": "uint256",
                    "name": "amount",
                    "type": "uint256"
                }
            ],
            "name": "FundsWithdrawn",
            "type": "event"
        },
        {
            "anonymous": false,
            "inputs": [
                {
                    "indexed": true,
                    "internalType": "uint256",
                    "name": "campaignId",
                    "type": "uint256"
                },
                {
                    "indexed": true,
                    "internalType": "address",
                    "name": "donor",
                    "type": "address"
                },
                {
                    "indexed": false,
                    "internalType": "uint256",
                    "name": "amount",
                    "type": "uint256"
                }
            ],
            "name": "RefundClaimed",
            "type": "event"
        },
        {
            "inputs": [],
            "name": "RECLAIM_PERIOD",
            "outputs": [
                {
                    "internalType": "uint256",
                    "name": "",
                    "type": "uint256"
                }
            ],
            "stateMutability": "view",
            "type": "function"
        },
        {
            "inputs": [
                {
                    "internalType": "uint256",
                    "name": "",
                    "type": "uint256"
                }
            ],
            "name": "campaigns",
            "outputs": [
                {
                    "internalType": "address",
                    "name": "creator",
                    "type": "address"
                },
                {
                    "internalType": "uint256",
                    "name": "targetAmount",
                    "type": "uint256"
                },
                {
                    "internalType": "uint256",
                    "name": "raisedAmount",
                    "type": "uint256"
                },
                {
                    "internalType": "uint256",
                    "name": "totalEverRaised",
                    "type": "uint256"
                },
                {
                    "internalType": "string",
                    "name": "dataCID",
                    "type": "string"
                },
                {
                    "internalType": "uint256",
                    "name": "endTime",
                    "type": "uint256"
                },
                {
                    "internalType": "enum Crowdfund.Status",
                    "name": "status",
                    "type": "uint8"
                },
                {
                    "internalType": "uint256",
                    "name": "creationTimestamp",
                    "type": "uint256"
                },
                {
                    "internalType": "uint256",
                    "name": "reclaimDeadline",
                    "type": "uint256"
                }
            ],
            "stateMutability": "view",
            "type": "function"
        },
        {
            "inputs": [
                {
                    "internalType": "uint256",
                    "name": "_campaignId",
                    "type": "uint256"
                }
            ],
            "name": "claimRefund",
            "outputs": [],
            "stateMutability": "nonpayable",
            "type": "function"
        },
        {
            "inputs": [
                {
                    "internalType": "uint256",
                    "name": "_targetAmount",
                    "type": "uint256"
                },
                {
                    "internalType": "string",
                    "name": "_dataCID",
                    "type": "string"
                },
                {
                    "internalType": "uint256",
                    "name": "_endTime",
                    "type": "uint256"
                }
            ],
            "name": "createCampaign",
            "outputs": [],
            "stateMutability": "nonpayable",
            "type": "function"
        },
        {
            "inputs": [
                {
                    "internalType": "uint256",
                    "name": "_campaignId",
                    "type": "uint256"
                }
            ],
            "name": "donate",
            "outputs": [],
            "stateMutability": "payable",
            "type": "function"
        },
        {
            "inputs": [
                {
                    "internalType": "uint256",
                    "name": "",
                    "type": "uint256"
                },
                {
                    "internalType": "address",
                    "name": "",
                    "type": "address"
                }
            ],
            "name": "donations",
            "outputs": [
                {
                    "internalType": "uint256",
                    "name": "",
                    "type": "uint256"
                }
            ],
            "stateMutability": "view",
            "type": "function"
        },
        {
            "inputs": [
                {
                    "internalType": "uint256",
                    "name": "_campaignId",
                    "type": "uint256"
                }
            ],
            "name": "finalizeClosureAndWithdraw",
            "outputs": [],
            "stateMutability": "nonpayable",
            "type": "function"
        },
        {
            "inputs": [
                {
                    "internalType": "uint256",
                    "name": "_campaignId",
                    "type": "uint256"
                }
            ],
            "name": "getCampaignCreator",
            "outputs": [
                {
                    "internalType": "address",
                    "name": "creatorAddress",
                    "type": "address"
                }
            ],
            "stateMutability": "view",
            "type": "function"
        },
        {
            "inputs": [
                {
                    "internalType": "uint256",
                    "name": "",
                    "type": "uint256"
                },
                {
                    "internalType": "address",
                    "name": "",
                    "type": "address"
                }
            ],
            "name": "hasReclaimed",
            "outputs": [
                {
                    "internalType": "bool",
                    "name": "",
                    "type": "bool"
                }
            ],
            "stateMutability": "view",
            "type": "function"
        },
        {
            "inputs": [
                {
                    "internalType": "uint256",
                    "name": "_campaignId",
                    "type": "uint256"
                }
            ],
            "name": "initiateClosure",
            "outputs": [],
            "stateMutability": "nonpayable",
            "type": "function"
        },
        {
            "inputs": [],
            "name": "nextCampaignId",
            "outputs": [
                {
                    "internalType": "uint256",
                    "name": "",
                    "type": "uint256"
                }
            ],
            "stateMutability": "view",
            "type": "function"
        },
        {
            "inputs": [
                {
                    "internalType": "uint256",
                    "name": "_campaignId",
                    "type": "uint256"
                }
            ],
            "name": "withdrawFunds",
            "outputs": [],
            "stateMutability": "nonpayable",
            "type": "function"
        }
    ],
    "bytecode": "0x6080604052600160045534801561001557600080fd5b5060016000556112058061002a6000396000f3fe6080604052600436106100a75760003560e01c80637903a756116100645780637903a756146101a55780637f7ad7bd146101bb5780639a93edd4146101db578063ee1554a3146101fb578063eeabc82114610233578063f14faf6f1461027e57600080fd5b80630f8fec6a146100ac578063141961bc146100d6578063155dd5ee1461010b57806315a92c5e1461012d5780635b7baf64146101655780636b290f6c14610185575b600080fd5b3480156100b857600080fd5b506100c36212750081565b6040519081526020015b60405180910390f35b3480156100e257600080fd5b506100f66100f1366004610df8565b610291565b6040516100cd99989796959493929190610e6d565b34801561011757600080fd5b5061012b610126366004610df8565b610374565b005b34801561013957600080fd5b5061014d610148366004610df8565b610503565b6040516001600160a01b0390911681526020016100cd565b34801561017157600080fd5b5061012b610180366004610df8565b61057f565b34801561019157600080fd5b5061012b6101a0366004610df8565b61082a565b3480156101b157600080fd5b506100c360045481565b3480156101c757600080fd5b5061012b6101d6366004610df8565b61096f565b3480156101e757600080fd5b5061012b6101f6366004610eff565b610b0a565b34801561020757600080fd5b506100c3610216366004610fc3565b600260209081526000928352604080842090915290825290205481565b34801561023f57600080fd5b5061026e61024e366004610fc3565b600360209081526000928352604080842090915290825290205460ff1681565b60405190151581526020016100cd565b61012b61028c366004610df8565b610c33565b6001602081905260009182526040909120805491810154600282015460038301546004840180546001600160a01b0390961695939492939192916102d490610fff565b80601f016020809104026020016040519081016040528092919081815260200182805461030090610fff565b801561034d5780601f106103225761010080835404028352916020019161034d565b820191906000526020600020905b81548152906001019060200180831161033057829003601f168201915b505050506005830154600684015460078501546008909501549394919360ff909116925089565b61037c610dce565b60008111801561038d575060045481105b6103aa57604051636824bccd60e01b815260040160405180910390fd5b600081815260016020526040902080546001600160a01b031633146103e2576040516339a0685760e21b815260040160405180910390fd5b6001600682015460ff1660048111156103fd576103fd610e57565b1461041b57604051631a9cf8fb60e11b815260040160405180910390fd5b60028101805460009182905560068301805460ff19166003179055604051909190339083908381818185875af1925050503d8060008114610478576040519150601f19603f3d011682016040523d82523d6000602084013e61047d565b606091505b50509050806104bc57600283018290556006830180546001919060ff191682805b0217905550604051639c358fad60e01b815260040160405180910390fd5b604051828152339085907ff440aec6b52895984d061d622e6edeba6210f7c3e059be920663140c084560d79060200160405180910390a35050506105006001600055565b50565b60008082118015610515575060045482105b61053257604051636824bccd60e01b815260040160405180910390fd5b600082815260016020526040812060070154900361056357604051636824bccd60e01b815260040160405180910390fd5b506000908152600160205260409020546001600160a01b031690565b610587610dce565b600081118015610598575060045481105b6105b557604051636824bccd60e01b815260040160405180910390fd5b60008181526001602052604081206006810154909160ff909116908160048111156105e2576105e2610e57565b14158015610602575060028160048111156105ff576105ff610e57565b14155b15610620576040516377579dc760e01b815260040160405180910390fd5b600281600481111561063457610634610e57565b148015610645575081600801544210155b1561066357604051635ade667160e11b815260040160405180910390fd5b60008381526002602090815260408083203384529091528120549081900361069e5760405163a047d25360e01b815260040160405180910390fd5b600084815260036020908152604080832033845290915290205460ff16156106d9576040516357ef322b60e01b815260040160405180910390fd5b600084815260036020908152604080832033808552908352818420805460ff191660011790558784526002808452828520918552925282208290558401805483929061072690849061104f565b9091555050604051600090339083908381818185875af1925050503d806000811461076d576040519150601f19603f3d011682016040523d82523d6000602084013e610772565b606091505b50509050806107e557600085815260036020908152604080832033808552908352818420805460ff19169055888452600280845282852091855292528220849055850180548492906107c5908490611068565b92505081905550604051639c358fad60e01b815260040160405180910390fd5b604051828152339086907ff3f402280ef0a7905e124aa621b65eaeb2725c343e8b36d398ed78c29daf285c9060200160405180910390a3505050506105006001600055565b610832610dce565b600081118015610843575060045481105b61086057604051636824bccd60e01b815260040160405180910390fd5b600081815260016020526040902080546001600160a01b03163314610898576040516339a0685760e21b815260040160405180910390fd5b6001600682015460ff1660048111156108b3576108b3610e57565b036108d157604051636cbb305360e01b815260040160405180910390fd5b6000600682015460ff1660048111156108ec576108ec610e57565b1461090a5760405163219a945b60e11b815260040160405180910390fd5b60068101805460ff191660021790556109266212750042611068565b60088201819055604051908152339083907fde221bc33d25c67ad983038945600e257ca80108345ee138fb8dcdb81047b38d9060200160405180910390a3506105006001600055565b610977610dce565b600081118015610988575060045481105b6109a557604051636824bccd60e01b815260040160405180910390fd5b600081815260016020526040902080546001600160a01b031633146109dd576040516339a0685760e21b815260040160405180910390fd5b6002600682015460ff1660048111156109f8576109f8610e57565b14610a16576040516314f022ff60e01b815260040160405180910390fd5b8060080154421015610a3b57604051631dbbf20d60e21b815260040160405180910390fd5b600281018054600090915560068201805460ff191660041790558015610ac757604051600090339083908381818185875af1925050503d8060008114610a9d576040519150601f19603f3d011682016040523d82523d6000602084013e610aa2565b606091505b5050905080610ac557600280840183905560068401805460ff191660018361049e565b505b604051818152339084907f56b3733fc38321c36ed67987a6099ef27aa3ff90a6a54132be859cd05624d1bc9060200160405180910390a350506105006001600055565b82600003610b2b57604051638c22284960e01b815260040160405180910390fd5b428111610b4b576040516351af208360e01b815260040160405180910390fd5b8151600003610b6d57604051632d6b3b2160e11b815260040160405180910390fd5b6004805460009182610b7e8361107b565b909155506000818152600160208190526040822080546001600160a01b0319163317815590810187905560028101829055600381019190915590915060048101610bc885826110e3565b506005810183905560068101805460ff19169055426007820181905560006008830155604051339184917feed5a8e4c5d2d4524446f6e45c808eb9fc61573852e3ee28551060100cd6c1fc91610c24918a918a918a91906111a3565b60405180910390a35050505050565b610c3b610dce565b600081118015610c4c575060045481105b610c6957604051636824bccd60e01b815260040160405180910390fd5b600081815260016020526040812090600682015460ff166004811115610c9157610c91610e57565b14610caf5760405163219a945b60e11b815260040160405180910390fd5b80600501544210610cd3576040516310b63aa560e31b815260040160405180910390fd5b34600003610cf457604051632007615f60e01b815260040160405180910390fd5b34816002016000828254610d089190611068565b9250508190555034816003016000828254610d239190611068565b9091555050600082815260026020908152604080832033845290915281208054349290610d51908490611068565b909155505060408051348152426020820152339184917f3dbea1b4ce5f95137fdcac9b1d685825c3d70ace830df1ca5a181d3887add410910160405180910390a38060010154816002015410158015610dae575060008160010154115b15610dc35760068101805460ff191660011790555b506105006001600055565b600260005403610df157604051633ee5aeb560e01b815260040160405180910390fd5b6002600055565b600060208284031215610e0a57600080fd5b5035919050565b6000815180845260005b81811015610e3757602081850181015186830182015201610e1b565b506000602082860101526020601f19601f83011685010191505092915050565b634e487b7160e01b600052602160045260246000fd5b600061012060018060a01b038c1683528a6020840152896040840152886060840152806080840152610ea181840189610e11565b9150508560a083015260058510610ec857634e487b7160e01b600052602160045260246000fd5b8460c08301528360e0830152826101008301529a9950505050505050505050565b634e487b7160e01b600052604160045260246000fd5b600080600060608486031215610f1457600080fd5b83359250602084013567ffffffffffffffff80821115610f3357600080fd5b818601915086601f830112610f4757600080fd5b813581811115610f5957610f59610ee9565b604051601f8201601f19908116603f01168101908382118183101715610f8157610f81610ee9565b81604052828152896020848701011115610f9a57600080fd5b826020860160208301376000602084830101528096505050505050604084013590509250925092565b60008060408385031215610fd657600080fd5b8235915060208301356001600160a01b0381168114610ff457600080fd5b809150509250929050565b600181811c9082168061101357607f821691505b60208210810361103357634e487b7160e01b600052602260045260246000fd5b50919050565b634e487b7160e01b600052601160045260246000fd5b8181038181111561106257611062611039565b92915050565b8082018082111561106257611062611039565b60006001820161108d5761108d611039565b5060010190565b601f8211156110de57600081815260208120601f850160051c810160208610156110bb5750805b601f850160051c820191505b818110156110da578281556001016110c7565b5050505b505050565b815167ffffffffffffffff8111156110fd576110fd610ee9565b6111118161110b8454610fff565b84611094565b602080601f831160018114611146576000841561112e5750858301515b600019600386901b1c1916600185901b1785556110da565b600085815260208120601f198616915b8281101561117557888601518255948401946001909101908401611156565b50858210156111935787850151600019600388901b60f8161c191681555b5050505050600190811b01905550565b8481526080602082015260006111bc6080830186610e11565b604083019490945250606001529291505056fea26469706673582212208b42f74890e93af0b97128d2c4cd807a0cf0fb2044a6b16229ef88dc246b440164736f6c63430008140033",
    "linkReferences": {},
    "deployedLinkReferences": {}
}